{
  "_format": "hh-sol-artifact-1",
  "contractName": "FreelanceChain",
  "sourceName": "contracts/FreelanceChain.sol",
  "abi": [
    {
      "inputs": [],
      "stateMutability": "nonpayable",
      "type": "constructor"
    },
    {
      "anonymous": false,
      "inputs": [
        {
          "indexed": true,
          "internalType": "string",
          "name": "id",
          "type": "string"
        },
        {
          "indexed": false,
          "internalType": "address payable",
          "name": "employer",
          "type": "address"
        },
        {
          "indexed": false,
          "internalType": "address payable",
          "name": "employee",
          "type": "address"
        },
        {
          "indexed": false,
          "internalType": "uint256",
          "name": "price",
          "type": "uint256"
        },
        {
          "indexed": false,
          "internalType": "uint256",
          "name": "timestamp",
          "type": "uint256"
        },
        {
          "indexed": false,
          "internalType": "enum FreelanceChain.JobStatus",
          "name": "status",
          "type": "uint8"
        }
      ],
      "name": "NewJob",
      "type": "event"
    },
    {
      "inputs": [
        {
          "internalType": "string",
          "name": "id",
          "type": "string"
        }
      ],
      "name": "approveJob",
      "outputs": [],
      "stateMutability": "nonpayable",
      "type": "function"
    },
    {
      "inputs": [
        {
          "internalType": "string",
          "name": "id",
          "type": "string"
        }
      ],
      "name": "completeJob",
      "outputs": [],
      "stateMutability": "nonpayable",
      "type": "function"
    },
    {
      "inputs": [
        {
          "internalType": "string",
          "name": "id",
          "type": "string"
        }
      ],
      "name": "getJob",
      "outputs": [
        {
          "components": [
            {
              "internalType": "string",
              "name": "id",
              "type": "string"
            },
            {
              "internalType": "address payable",
              "name": "employer",
              "type": "address"
            },
            {
              "internalType": "address payable",
              "name": "employee",
              "type": "address"
            },
            {
              "internalType": "uint256",
              "name": "price",
              "type": "uint256"
            },
            {
              "internalType": "bool",
              "name": "isCompleted",
              "type": "bool"
            },
            {
              "internalType": "bool",
              "name": "isCancelled",
              "type": "bool"
            },
            {
              "internalType": "uint256",
              "name": "timestamp",
              "type": "uint256"
            },
            {
              "internalType": "enum FreelanceChain.JobStatus",
              "name": "status",
              "type": "uint8"
            }
          ],
          "internalType": "struct FreelanceChain.Job",
          "name": "",
          "type": "tuple"
        }
      ],
      "stateMutability": "view",
      "type": "function"
    },
    {
      "inputs": [],
      "name": "getJobs",
      "outputs": [
        {
          "components": [
            {
              "internalType": "string",
              "name": "id",
              "type": "string"
            },
            {
              "internalType": "address payable",
              "name": "employer",
              "type": "address"
            },
            {
              "internalType": "address payable",
              "name": "employee",
              "type": "address"
            },
            {
              "internalType": "uint256",
              "name": "price",
              "type": "uint256"
            },
            {
              "internalType": "bool",
              "name": "isCompleted",
              "type": "bool"
            },
            {
              "internalType": "bool",
              "name": "isCancelled",
              "type": "bool"
            },
            {
              "internalType": "uint256",
              "name": "timestamp",
              "type": "uint256"
            },
            {
              "internalType": "enum FreelanceChain.JobStatus",
              "name": "status",
              "type": "uint8"
            }
          ],
          "internalType": "struct FreelanceChain.Job[]",
          "name": "",
          "type": "tuple[]"
        }
      ],
      "stateMutability": "view",
      "type": "function"
    },
    {
      "inputs": [
        {
          "internalType": "string",
          "name": "",
          "type": "string"
        }
      ],
      "name": "jobExists",
      "outputs": [
        {
          "internalType": "bool",
          "name": "",
          "type": "bool"
        }
      ],
      "stateMutability": "view",
      "type": "function"
    },
    {
      "inputs": [
        {
          "internalType": "uint256",
          "name": "",
          "type": "uint256"
        }
      ],
      "name": "jobIds",
      "outputs": [
        {
          "internalType": "string",
          "name": "",
          "type": "string"
        }
      ],
      "stateMutability": "view",
      "type": "function"
    },
    {
      "inputs": [
        {
          "internalType": "string",
          "name": "",
          "type": "string"
        }
      ],
      "name": "jobs",
      "outputs": [
        {
          "internalType": "string",
          "name": "id",
          "type": "string"
        },
        {
          "internalType": "address payable",
          "name": "employer",
          "type": "address"
        },
        {
          "internalType": "address payable",
          "name": "employee",
          "type": "address"
        },
        {
          "internalType": "uint256",
          "name": "price",
          "type": "uint256"
        },
        {
          "internalType": "bool",
          "name": "isCompleted",
          "type": "bool"
        },
        {
          "internalType": "bool",
          "name": "isCancelled",
          "type": "bool"
        },
        {
          "internalType": "uint256",
          "name": "timestamp",
          "type": "uint256"
        },
        {
          "internalType": "enum FreelanceChain.JobStatus",
          "name": "status",
          "type": "uint8"
        }
      ],
      "stateMutability": "view",
      "type": "function"
    },
    {
      "inputs": [
        {
          "internalType": "string",
          "name": "id",
          "type": "string"
        },
        {
          "components": [
            {
              "internalType": "string",
              "name": "id",
              "type": "string"
            },
            {
              "internalType": "address payable",
              "name": "employer",
              "type": "address"
            },
            {
              "internalType": "address payable",
              "name": "employee",
              "type": "address"
            },
            {
              "internalType": "uint256",
              "name": "price",
              "type": "uint256"
            }
          ],
          "internalType": "struct FreelanceChain.RequestJob",
          "name": "jobData",
          "type": "tuple"
        }
      ],
      "name": "newJob",
      "outputs": [],
      "stateMutability": "payable",
      "type": "function"
    }
  ],
  "bytecode": "0x608060405234801561001057600080fd5b50336000806101000a81548173ffffffffffffffffffffffffffffffffffffffff021916908373ffffffffffffffffffffffffffffffffffffffff160217905550612020806100606000396000f3fe60806040526004361061007b5760003560e01c806377e324071161004e57806377e3240714610141578063a010f2271461017e578063a69e791e146101a7578063b05e6f5a146101d05761007b565b806311e5b56314610080578063165595401461009c5780634162cc88146100d957806368581ebd14610116575b600080fd5b61009a6004803603810190610095919061136a565b610214565b005b3480156100a857600080fd5b506100c360048036038101906100be91906113e2565b610565565b6040516100d09190611446565b60405180910390f35b3480156100e557600080fd5b5061010060048036038101906100fb9190611461565b61059b565b60405161010d919061150d565b60405180910390f35b34801561012257600080fd5b5061012b610647565b604051610138919061178f565b60405180910390f35b34801561014d57600080fd5b50610168600480360381019061016391906113e2565b6108f3565b6040516101759190611861565b60405180910390f35b34801561018a57600080fd5b506101a560048036038101906101a091906113e2565b610b5a565b005b3480156101b357600080fd5b506101ce60048036038101906101c991906113e2565b610cfa565b005b3480156101dc57600080fd5b506101f760048036038101906101f291906113e2565b610f0a565b60405161020b9897969594939291906118b0565b60405180910390f35b60003411610257576040517f08c379a000000000000000000000000000000000000000000000000000000000815260040161024e90611981565b60405180910390fd5b60028260405161026791906119dd565b908152602001604051809103902060009054906101000a900460ff16156102c3576040517f08c379a00000000000000000000000000000000000000000000000000000000081526004016102ba90611a40565b60405180910390fd5b6040518061010001604052808381526020013373ffffffffffffffffffffffffffffffffffffffff168152602001826040015173ffffffffffffffffffffffffffffffffffffffff16815260200134815260200160001515815260200160001515815260200142815260200160016004811115610343576103426115d2565b5b81525060018360405161035691906119dd565b908152602001604051809103902060008201518160000190816103799190611c6c565b5060208201518160010160006101000a81548173ffffffffffffffffffffffffffffffffffffffff021916908373ffffffffffffffffffffffffffffffffffffffff16021790555060408201518160020160006101000a81548173ffffffffffffffffffffffffffffffffffffffff021916908373ffffffffffffffffffffffffffffffffffffffff1602179055506060820151816003015560808201518160040160006101000a81548160ff02191690831515021790555060a08201518160040160016101000a81548160ff02191690831515021790555060c0820151816005015560e08201518160060160006101000a81548160ff02191690836004811115610487576104866115d2565b5b021790555090505060016002836040516104a191906119dd565b908152602001604051809103902060006101000a81548160ff0219169083151502179055506003829080600181540180825580915050600190039060005260206000200160009091909190915090816104fa9190611c6c565b50806000015160405161050d91906119dd565b60405180910390207f0d79b2da407e9b0cb0af0ca9bcd10efe7ae4ec1d958594135491db1a0d643ad4826020015183604001518460600151426001604051610559959493929190611d3e565b60405180910390a25050565b6002818051602081018201805184825260208301602085012081835280955050505050506000915054906101000a900460ff1681565b600381815481106105ab57600080fd5b9060005260206000200160009150905080546105c690611a8f565b80601f01602080910402602001604051908101604052809291908181526020018280546105f290611a8f565b801561063f5780601f106106145761010080835404028352916020019161063f565b820191906000526020600020905b81548152906001019060200180831161062257829003601f168201915b505050505081565b6060600060038054905067ffffffffffffffff81111561066a5761066961110d565b5b6040519080825280602002602001820160405280156106a357816020015b610690611057565b8152602001906001900390816106885790505b50905060005b6003805490508110156108eb576001600382815481106106cc576106cb611d91565b5b906000526020600020016040516106e39190611e43565b90815260200160405180910390206040518061010001604052908160008201805461070d90611a8f565b80601f016020809104026020016040519081016040528092919081815260200182805461073990611a8f565b80156107865780601f1061075b57610100808354040283529160200191610786565b820191906000526020600020905b81548152906001019060200180831161076957829003601f168201915b505050505081526020016001820160009054906101000a900473ffffffffffffffffffffffffffffffffffffffff1673ffffffffffffffffffffffffffffffffffffffff1673ffffffffffffffffffffffffffffffffffffffff1681526020016002820160009054906101000a900473ffffffffffffffffffffffffffffffffffffffff1673ffffffffffffffffffffffffffffffffffffffff1673ffffffffffffffffffffffffffffffffffffffff168152602001600382015481526020016004820160009054906101000a900460ff161515151581526020016004820160019054906101000a900460ff16151515158152602001600582015481526020016006820160009054906101000a900460ff1660048111156108aa576108a96115d2565b5b60048111156108bc576108bb6115d2565b5b815250508282815181106108d3576108d2611d91565b5b602002602001018190525080806001019150506106a9565b508091505090565b6108fb611057565b60028260405161090b91906119dd565b908152602001604051809103902060009054906101000a900460ff16610966576040517f08c379a000000000000000000000000000000000000000000000000000000000815260040161095d90611ea6565b60405180910390fd5b60018260405161097691906119dd565b9081526020016040518091039020604051806101000160405290816000820180546109a090611a8f565b80601f01602080910402602001604051908101604052809291908181526020018280546109cc90611a8f565b8015610a195780601f106109ee57610100808354040283529160200191610a19565b820191906000526020600020905b8154815290600101906020018083116109fc57829003601f168201915b505050505081526020016001820160009054906101000a900473ffffffffffffffffffffffffffffffffffffffff1673ffffffffffffffffffffffffffffffffffffffff1673ffffffffffffffffffffffffffffffffffffffff1681526020016002820160009054906101000a900473ffffffffffffffffffffffffffffffffffffffff1673ffffffffffffffffffffffffffffffffffffffff1673ffffffffffffffffffffffffffffffffffffffff168152602001600382015481526020016004820160009054906101000a900460ff161515151581526020016004820160019054906101000a900460ff16151515158152602001600582015481526020016006820160009054906101000a900460ff166004811115610b3d57610b3c6115d2565b5b6004811115610b4f57610b4e6115d2565b5b815250509050919050565b600281604051610b6a91906119dd565b908152602001604051809103902060009054906101000a900460ff16610bc5576040517f08c379a0000000000000000000000000000000000000000000000000000000008152600401610bbc90611ea6565b60405180910390fd5b3373ffffffffffffffffffffffffffffffffffffffff16600182604051610bec91906119dd565b908152602001604051809103902060020160009054906101000a900473ffffffffffffffffffffffffffffffffffffffff1673ffffffffffffffffffffffffffffffffffffffff1614610c74576040517f08c379a0000000000000000000000000000000000000000000000000000000008152600401610c6b90611f38565b60405180910390fd5b60018082604051610c8591906119dd565b908152602001604051809103902060040160006101000a81548160ff0219169083151502179055506002600182604051610cbf91906119dd565b908152602001604051809103902060060160006101000a81548160ff02191690836004811115610cf257610cf16115d2565b5b021790555050565b600281604051610d0a91906119dd565b908152602001604051809103902060009054906101000a900460ff16610d65576040517f08c379a0000000000000000000000000000000000000000000000000000000008152600401610d5c90611ea6565b60405180910390fd5b3373ffffffffffffffffffffffffffffffffffffffff16600182604051610d8c91906119dd565b908152602001604051809103902060010160009054906101000a900473ffffffffffffffffffffffffffffffffffffffff1673ffffffffffffffffffffffffffffffffffffffff1614610e14576040517f08c379a0000000000000000000000000000000000000000000000000000000008152600401610e0b90611fca565b60405180910390fd5b6003600182604051610e2691906119dd565b908152602001604051809103902060060160006101000a81548160ff02191690836004811115610e5957610e586115d2565b5b0217905550600181604051610e6e91906119dd565b908152602001604051809103902060020160009054906101000a900473ffffffffffffffffffffffffffffffffffffffff1673ffffffffffffffffffffffffffffffffffffffff166108fc600183604051610ec991906119dd565b9081526020016040518091039020600301549081150290604051600060405180830381858888f19350505050158015610f06573d6000803e3d6000fd5b5050565b600181805160208101820180518482526020830160208501208183528095505050505050600091509050806000018054610f4390611a8f565b80601f0160208091040260200160405190810160405280929190818152602001828054610f6f90611a8f565b8015610fbc5780601f10610f9157610100808354040283529160200191610fbc565b820191906000526020600020905b815481529060010190602001808311610f9f57829003601f168201915b5050505050908060010160009054906101000a900473ffffffffffffffffffffffffffffffffffffffff16908060020160009054906101000a900473ffffffffffffffffffffffffffffffffffffffff16908060030154908060040160009054906101000a900460ff16908060040160019054906101000a900460ff16908060050154908060060160009054906101000a900460ff16905088565b60405180610100016040528060608152602001600073ffffffffffffffffffffffffffffffffffffffff168152602001600073ffffffffffffffffffffffffffffffffffffffff1681526020016000815260200160001515815260200160001515815260200160008152602001600060048111156110d8576110d76115d2565b5b81525090565b6000604051905090565b600080fd5b600080fd5b600080fd5b600080fd5b6000601f19601f8301169050919050565b7f4e487b7100000000000000000000000000000000000000000000000000000000600052604160045260246000fd5b611145826110fc565b810181811067ffffffffffffffff821117156111645761116361110d565b5b80604052505050565b60006111776110de565b9050611183828261113c565b919050565b600067ffffffffffffffff8211156111a3576111a261110d565b5b6111ac826110fc565b9050602081019050919050565b82818337600083830152505050565b60006111db6111d684611188565b61116d565b9050828152602081018484840111156111f7576111f66110f7565b5b6112028482856111b9565b509392505050565b600082601f83011261121f5761121e6110f2565b5b813561122f8482602086016111c8565b91505092915050565b600080fd5b600080fd5b600073ffffffffffffffffffffffffffffffffffffffff82169050919050565b600061126d82611242565b9050919050565b61127d81611262565b811461128857600080fd5b50565b60008135905061129a81611274565b92915050565b6000819050919050565b6112b3816112a0565b81146112be57600080fd5b50565b6000813590506112d0816112aa565b92915050565b6000608082840312156112ec576112eb611238565b5b6112f6608061116d565b9050600082013567ffffffffffffffff8111156113165761131561123d565b5b6113228482850161120a565b60008301525060206113368482850161128b565b602083015250604061134a8482850161128b565b604083015250606061135e848285016112c1565b60608301525092915050565b60008060408385031215611381576113806110e8565b5b600083013567ffffffffffffffff81111561139f5761139e6110ed565b5b6113ab8582860161120a565b925050602083013567ffffffffffffffff8111156113cc576113cb6110ed565b5b6113d8858286016112d6565b9150509250929050565b6000602082840312156113f8576113f76110e8565b5b600082013567ffffffffffffffff811115611416576114156110ed565b5b6114228482850161120a565b91505092915050565b60008115159050919050565b6114408161142b565b82525050565b600060208201905061145b6000830184611437565b92915050565b600060208284031215611477576114766110e8565b5b6000611485848285016112c1565b91505092915050565b600081519050919050565b600082825260208201905092915050565b60005b838110156114c85780820151818401526020810190506114ad565b60008484015250505050565b60006114df8261148e565b6114e98185611499565b93506114f98185602086016114aa565b611502816110fc565b840191505092915050565b6000602082019050818103600083015261152781846114d4565b905092915050565b600081519050919050565b600082825260208201905092915050565b6000819050602082019050919050565b600082825260208201905092915050565b60006115778261148e565b611581818561155b565b93506115918185602086016114aa565b61159a816110fc565b840191505092915050565b6115ae81611262565b82525050565b6115bd816112a0565b82525050565b6115cc8161142b565b82525050565b7f4e487b7100000000000000000000000000000000000000000000000000000000600052602160045260246000fd5b60058110611612576116116115d2565b5b50565b600081905061162382611601565b919050565b600061163382611615565b9050919050565b61164381611628565b82525050565b6000610100830160008301518482036000860152611667828261156c565b915050602083015161167c60208601826115a5565b50604083015161168f60408601826115a5565b5060608301516116a260608601826115b4565b5060808301516116b560808601826115c3565b5060a08301516116c860a08601826115c3565b5060c08301516116db60c08601826115b4565b5060e08301516116ee60e086018261163a565b508091505092915050565b60006117058383611649565b905092915050565b6000602082019050919050565b60006117258261152f565b61172f818561153a565b9350836020820285016117418561154b565b8060005b8581101561177d578484038952815161175e85826116f9565b94506117698361170d565b925060208a01995050600181019050611745565b50829750879550505050505092915050565b600060208201905081810360008301526117a9818461171a565b905092915050565b60006101008301600083015184820360008601526117cf828261156c565b91505060208301516117e460208601826115a5565b5060408301516117f760408601826115a5565b50606083015161180a60608601826115b4565b50608083015161181d60808601826115c3565b5060a083015161183060a08601826115c3565b5060c083015161184360c08601826115b4565b5060e083015161185660e086018261163a565b508091505092915050565b6000602082019050818103600083015261187b81846117b1565b905092915050565b61188c81611262565b82525050565b61189b816112a0565b82525050565b6118aa81611628565b82525050565b60006101008201905081810360008301526118cb818b6114d4565b90506118da602083018a611883565b6118e76040830189611883565b6118f46060830188611892565b6119016080830187611437565b61190e60a0830186611437565b61191b60c0830185611892565b61192860e08301846118a1565b9998505050505050505050565b7f43616e74206372656174652061206a6f62207769746820302065746800000000600082015250565b600061196b601c83611499565b915061197682611935565b602082019050919050565b6000602082019050818103600083015261199a8161195e565b9050919050565b600081905092915050565b60006119b78261148e565b6119c181856119a1565b93506119d18185602086016114aa565b80840191505092915050565b60006119e982846119ac565b915081905092915050565b7f4a6f622077697468207468697320494420616c72656164792065786973747300600082015250565b6000611a2a601f83611499565b9150611a35826119f4565b602082019050919050565b60006020820190508181036000830152611a5981611a1d565b9050919050565b7f4e487b7100000000000000000000000000000000000000000000000000000000600052602260045260246000fd5b60006002820490506001821680611aa757607f821691505b602082108103611aba57611ab9611a60565b5b50919050565b60008190508160005260206000209050919050565b60006020601f8301049050919050565b600082821b905092915050565b600060088302611b227fffffffffffffffffffffffffffffffffffffffffffffffffffffffffffffffff82611ae5565b611b2c8683611ae5565b95508019841693508086168417925050509392505050565b6000819050919050565b6000611b69611b64611b5f846112a0565b611b44565b6112a0565b9050919050565b6000819050919050565b611b8383611b4e565b611b97611b8f82611b70565b848454611af2565b825550505050565b600090565b611bac611b9f565b611bb7818484611b7a565b505050565b5b81811015611bdb57611bd0600082611ba4565b600181019050611bbd565b5050565b601f821115611c2057611bf181611ac0565b611bfa84611ad5565b81016020851015611c09578190505b611c1d611c1585611ad5565b830182611bbc565b50505b505050565b600082821c905092915050565b6000611c4360001984600802611c25565b1980831691505092915050565b6000611c5c8383611c32565b9150826002028217905092915050565b611c758261148e565b67ffffffffffffffff811115611c8e57611c8d61110d565b5b611c988254611a8f565b611ca3828285611bdf565b600060209050601f831160018114611cd65760008415611cc4578287015190505b611cce8582611c50565b865550611d36565b601f198416611ce486611ac0565b60005b82811015611d0c57848901518255600182019150602085019450602081019050611ce7565b86831015611d295784890151611d25601f891682611c32565b8355505b6001600288020188555050505b505050505050565b600060a082019050611d536000830188611883565b611d606020830187611883565b611d6d6040830186611892565b611d7a6060830185611892565b611d8760808301846118a1565b9695505050505050565b7f4e487b7100000000000000000000000000000000000000000000000000000000600052603260045260246000fd5b60008154611dcd81611a8f565b611dd781866119a1565b94506001821660008114611df25760018114611e0757611e3a565b60ff1983168652811515820286019350611e3a565b611e1085611ac0565b60005b83811015611e3257815481890152600182019150602081019050611e13565b838801955050505b50505092915050565b6000611e4f8284611dc0565b915081905092915050565b7f4a6f6220646f6573206e6f742065786973740000000000000000000000000000600082015250565b6000611e90601283611499565b9150611e9b82611e5a565b602082019050919050565b60006020820190508181036000830152611ebf81611e83565b9050919050565b7f4f6e6c79207468652061737369676e656420656d706c6f7965652063616e206360008201527f6f6d706c65746520746865206a6f620000000000000000000000000000000000602082015250565b6000611f22602f83611499565b9150611f2d82611ec6565b604082019050919050565b60006020820190508181036000830152611f5181611f15565b9050919050565b7f4f6e6c79207468652061737369676e656420656d706c6f7965722063616e206160008201527f7070726f766520746865206a6f62000000000000000000000000000000000000602082015250565b6000611fb4602e83611499565b9150611fbf82611f58565b604082019050919050565b60006020820190508181036000830152611fe381611fa7565b905091905056fea264697066735822122020c3d00764d7db8530361a8ef6afbe109c421b74a504d803b212456c987c3d6864736f6c63430008180033",
  "linkReferences": {},
  "deployedLinkReferences": {}
}